{
  "_format": "hh-sol-artifact-1",
  "contractName": "GrabASlice",
  "sourceName": "contracts/GrabASlice.sol",
  "abi": [
    {
      "inputs": [],
      "stateMutability": "nonpayable",
      "type": "constructor"
    },
    {
      "anonymous": false,
      "inputs": [
        {
          "indexed": false,
          "internalType": "address",
          "name": "from",
          "type": "address"
        },
        {
          "indexed": false,
          "internalType": "uint256",
          "name": "timestamp",
          "type": "uint256"
        },
        {
          "indexed": false,
          "internalType": "string",
          "name": "crust",
          "type": "string"
        },
        {
          "indexed": false,
          "internalType": "string[]",
          "name": "toppings",
          "type": "string[]"
        },
        {
          "indexed": false,
          "internalType": "string",
          "name": "sauce",
          "type": "string"
        },
        {
          "indexed": false,
          "internalType": "string",
          "name": "cheese",
          "type": "string"
        },
        {
          "indexed": false,
          "internalType": "string",
          "name": "name",
          "type": "string"
        },
        {
          "indexed": false,
          "internalType": "string",
          "name": "message",
          "type": "string"
        }
      ],
      "name": "NewSlice",
      "type": "event"
    },
    {
      "inputs": [],
      "name": "getSlices",
      "outputs": [
        {
          "components": [
            {
              "internalType": "address",
              "name": "from",
              "type": "address"
            },
            {
              "internalType": "uint256",
              "name": "timestamp",
              "type": "uint256"
            },
            {
              "internalType": "string",
              "name": "crust",
              "type": "string"
            },
            {
              "internalType": "string[]",
              "name": "toppings",
              "type": "string[]"
            },
            {
              "internalType": "string",
              "name": "sauce",
              "type": "string"
            },
            {
              "internalType": "string",
              "name": "cheese",
              "type": "string"
            },
            {
              "internalType": "string",
              "name": "name",
              "type": "string"
            },
            {
              "internalType": "string",
              "name": "message",
              "type": "string"
            }
          ],
          "internalType": "struct GrabASlice.Slice[]",
          "name": "",
          "type": "tuple[]"
        }
      ],
      "stateMutability": "view",
      "type": "function"
    },
    {
      "inputs": [
        {
          "internalType": "string",
          "name": "_crust",
          "type": "string"
        },
        {
          "internalType": "string[]",
          "name": "_toppings",
          "type": "string[]"
        },
        {
          "internalType": "string",
          "name": "_sauce",
          "type": "string"
        },
        {
          "internalType": "string",
          "name": "_cheese",
          "type": "string"
        },
        {
          "internalType": "string",
          "name": "_name",
          "type": "string"
        },
        {
          "internalType": "string",
          "name": "_msg",
          "type": "string"
        }
      ],
      "name": "grabSlice",
      "outputs": [],
      "stateMutability": "payable",
      "type": "function"
    },
    {
      "inputs": [
        {
          "internalType": "uint256",
          "name": "",
          "type": "uint256"
        }
      ],
      "name": "slices",
      "outputs": [
        {
          "internalType": "address",
          "name": "from",
          "type": "address"
        },
        {
          "internalType": "uint256",
          "name": "timestamp",
          "type": "uint256"
        },
        {
          "internalType": "string",
          "name": "crust",
          "type": "string"
        },
        {
          "internalType": "string",
          "name": "sauce",
          "type": "string"
        },
        {
          "internalType": "string",
          "name": "cheese",
          "type": "string"
        },
        {
          "internalType": "string",
          "name": "name",
          "type": "string"
        },
        {
          "internalType": "string",
          "name": "message",
          "type": "string"
        }
      ],
      "stateMutability": "view",
      "type": "function"
    },
    {
      "inputs": [],
      "name": "withdrawBalance",
      "outputs": [],
      "stateMutability": "nonpayable",
      "type": "function"
    }
  ],
  "bytecode": "0x60a06040523480156200001157600080fd5b503373ffffffffffffffffffffffffffffffffffffffff1660808173ffffffffffffffffffffffffffffffffffffffff1681525050620000926040518060400160405280601581526020017f4772616241536c696365206465706c6f79656420400000000000000000000000815250306200009860201b62000b061760201c565b6200027a565b6200013a8282604051602401620000b192919062000246565b6040516020818303038152906040527f319af333000000000000000000000000000000000000000000000000000000007bffffffffffffffffffffffffffffffffffffffffffffffffffffffff19166020820180517bffffffffffffffffffffffffffffffffffffffffffffffffffffffff83818316178352505050506200013e60201b60201c565b5050565b60008151905060006a636f6e736f6c652e6c6f679050602083016000808483855afa5050505050565b600081519050919050565b600082825260208201905092915050565b60005b83811015620001a357808201518184015260208101905062000186565b60008484015250505050565b6000601f19601f8301169050919050565b6000620001cd8262000167565b620001d9818562000172565b9350620001eb81856020860162000183565b620001f681620001af565b840191505092915050565b600073ffffffffffffffffffffffffffffffffffffffff82169050919050565b60006200022e8262000201565b9050919050565b620002408162000221565b82525050565b60006040820190508181036000830152620002628185620001c0565b905062000273602083018462000235565b9392505050565b60805161199d6200029c6000396000818160e70152610175015261199d6000f3fe60806040526004361061003f5760003560e01c80635fd8c71014610044578063d2098a931461005b578063dbe388f914610077578063e84df24a146100a2575b600080fd5b34801561005057600080fd5b506100596100e5565b005b61007560048036038101906100709190610ee5565b6101d3565b005b34801561008357600080fd5b5061008c610379565b604051610099919061134a565b60405180910390f35b3480156100ae57600080fd5b506100c960048036038101906100c49190611398565b6107ec565b6040516100dc979695949392919061142d565b60405180910390f35b7f000000000000000000000000000000000000000000000000000000000000000073ffffffffffffffffffffffffffffffffffffffff163373ffffffffffffffffffffffffffffffffffffffff1614610173576040517f08c379a000000000000000000000000000000000000000000000000000000000815260040161016a9061150b565b60405180910390fd5b7f000000000000000000000000000000000000000000000000000000000000000073ffffffffffffffffffffffffffffffffffffffff166108fc479081150290604051600060405180830381858888f193505050506101d157600080fd5b565b60006040518061010001604052803373ffffffffffffffffffffffffffffffffffffffff16815260200142815260200188815260200187815260200186815260200185815260200184815260200183815250908060018154018082558091505060019003906000526020600020906008020160009091909190915060008201518160000160006101000a81548173ffffffffffffffffffffffffffffffffffffffff021916908373ffffffffffffffffffffffffffffffffffffffff1602179055506020820151816001015560408201518160020190816102b49190611737565b5060608201518160030190805190602001906102d1929190610bcb565b5060808201518160040190816102e79190611737565b5060a08201518160050190816102fd9190611737565b5060c08201518160060190816103139190611737565b5060e08201518160070190816103299190611737565b5050507f404d05f3b55886d1705334a805103efdaa66e9bdc41b1dcab7668129dcbbeb06334288888888888860405161036998979695949392919061188f565b60405180910390a1505050505050565b60606000805480602002602001604051908101604052809291908181526020016000905b828210156107e35783829060005260206000209060080201604051806101000160405290816000820160009054906101000a900473ffffffffffffffffffffffffffffffffffffffff1673ffffffffffffffffffffffffffffffffffffffff1673ffffffffffffffffffffffffffffffffffffffff168152602001600182015481526020016002820180546104319061155a565b80601f016020809104026020016040519081016040528092919081815260200182805461045d9061155a565b80156104aa5780601f1061047f576101008083540402835291602001916104aa565b820191906000526020600020905b81548152906001019060200180831161048d57829003601f168201915b5050505050815260200160038201805480602002602001604051908101604052809291908181526020016000905b828210156105845783829060005260206000200180546104f79061155a565b80601f01602080910402602001604051908101604052809291908181526020018280546105239061155a565b80156105705780601f1061054557610100808354040283529160200191610570565b820191906000526020600020905b81548152906001019060200180831161055357829003601f168201915b5050505050815260200190600101906104d8565b50505050815260200160048201805461059c9061155a565b80601f01602080910402602001604051908101604052809291908181526020018280546105c89061155a565b80156106155780601f106105ea57610100808354040283529160200191610615565b820191906000526020600020905b8154815290600101906020018083116105f857829003601f168201915b5050505050815260200160058201805461062e9061155a565b80601f016020809104026020016040519081016040528092919081815260200182805461065a9061155a565b80156106a75780601f1061067c576101008083540402835291602001916106a7565b820191906000526020600020905b81548152906001019060200180831161068a57829003601f168201915b505050505081526020016006820180546106c09061155a565b80601f01602080910402602001604051908101604052809291908181526020018280546106ec9061155a565b80156107395780601f1061070e57610100808354040283529160200191610739565b820191906000526020600020905b81548152906001019060200180831161071c57829003601f168201915b505050505081526020016007820180546107529061155a565b80601f016020809104026020016040519081016040528092919081815260200182805461077e9061155a565b80156107cb5780601f106107a0576101008083540402835291602001916107cb565b820191906000526020600020905b8154815290600101906020018083116107ae57829003601f168201915b5050505050815250508152602001906001019061039d565b50505050905090565b600081815481106107fc57600080fd5b90600052602060002090600802016000915090508060000160009054906101000a900473ffffffffffffffffffffffffffffffffffffffff169080600101549080600201805461084b9061155a565b80601f01602080910402602001604051908101604052809291908181526020018280546108779061155a565b80156108c45780601f10610899576101008083540402835291602001916108c4565b820191906000526020600020905b8154815290600101906020018083116108a757829003601f168201915b5050505050908060040180546108d99061155a565b80601f01602080910402602001604051908101604052809291908181526020018280546109059061155a565b80156109525780601f1061092757610100808354040283529160200191610952565b820191906000526020600020905b81548152906001019060200180831161093557829003601f168201915b5050505050908060050180546109679061155a565b80601f01602080910402602001604051908101604052809291908181526020018280546109939061155a565b80156109e05780601f106109b5576101008083540402835291602001916109e0565b820191906000526020600020905b8154815290600101906020018083116109c357829003601f168201915b5050505050908060060180546109f59061155a565b80601f0160208091040260200160405190810160405280929190818152602001828054610a219061155a565b8015610a6e5780601f10610a4357610100808354040283529160200191610a6e565b820191906000526020600020905b815481529060010190602001808311610a5157829003601f168201915b505050505090806007018054610a839061155a565b80601f0160208091040260200160405190810160405280929190818152602001828054610aaf9061155a565b8015610afc5780601f10610ad157610100808354040283529160200191610afc565b820191906000526020600020905b815481529060010190602001808311610adf57829003601f168201915b5050505050905087565b610b9e8282604051602401610b1c929190611937565b6040516020818303038152906040527f319af333000000000000000000000000000000000000000000000000000000007bffffffffffffffffffffffffffffffffffffffffffffffffffffffff19166020820180517bffffffffffffffffffffffffffffffffffffffffffffffffffffffff8381831617835250505050610ba2565b5050565b60008151905060006a636f6e736f6c652e6c6f679050602083016000808483855afa5050505050565b828054828255906000526020600020908101928215610c13579160200282015b82811115610c12578251829081610c029190611737565b5091602001919060010190610beb565b5b509050610c209190610c24565b5090565b5b80821115610c445760008181610c3b9190610c48565b50600101610c25565b5090565b508054610c549061155a565b6000825580601f10610c665750610c85565b601f016020900490600052602060002090810190610c849190610c88565b5b50565b5b80821115610ca1576000816000905550600101610c89565b5090565b6000604051905090565b600080fd5b600080fd5b600080fd5b600080fd5b6000601f19601f8301169050919050565b7f4e487b7100000000000000000000000000000000000000000000000000000000600052604160045260246000fd5b610d0c82610cc3565b810181811067ffffffffffffffff82111715610d2b57610d2a610cd4565b5b80604052505050565b6000610d3e610ca5565b9050610d4a8282610d03565b919050565b600067ffffffffffffffff821115610d6a57610d69610cd4565b5b610d7382610cc3565b9050602081019050919050565b82818337600083830152505050565b6000610da2610d9d84610d4f565b610d34565b905082815260208101848484011115610dbe57610dbd610cbe565b5b610dc9848285610d80565b509392505050565b600082601f830112610de657610de5610cb9565b5b8135610df6848260208601610d8f565b91505092915050565b600067ffffffffffffffff821115610e1a57610e19610cd4565b5b602082029050602081019050919050565b600080fd5b6000610e43610e3e84610dff565b610d34565b90508083825260208201905060208402830185811115610e6657610e65610e2b565b5b835b81811015610ead57803567ffffffffffffffff811115610e8b57610e8a610cb9565b5b808601610e988982610dd1565b85526020850194505050602081019050610e68565b5050509392505050565b600082601f830112610ecc57610ecb610cb9565b5b8135610edc848260208601610e30565b91505092915050565b60008060008060008060c08789031215610f0257610f01610caf565b5b600087013567ffffffffffffffff811115610f2057610f1f610cb4565b5b610f2c89828a01610dd1565b965050602087013567ffffffffffffffff811115610f4d57610f4c610cb4565b5b610f5989828a01610eb7565b955050604087013567ffffffffffffffff811115610f7a57610f79610cb4565b5b610f8689828a01610dd1565b945050606087013567ffffffffffffffff811115610fa757610fa6610cb4565b5b610fb389828a01610dd1565b935050608087013567ffffffffffffffff811115610fd457610fd3610cb4565b5b610fe089828a01610dd1565b92505060a087013567ffffffffffffffff81111561100157611000610cb4565b5b61100d89828a01610dd1565b9150509295509295509295565b600081519050919050565b600082825260208201905092915050565b6000819050602082019050919050565b600073ffffffffffffffffffffffffffffffffffffffff82169050919050565b600061107182611046565b9050919050565b61108181611066565b82525050565b6000819050919050565b61109a81611087565b82525050565b600081519050919050565b600082825260208201905092915050565b60005b838110156110da5780820151818401526020810190506110bf565b60008484015250505050565b60006110f1826110a0565b6110fb81856110ab565b935061110b8185602086016110bc565b61111481610cc3565b840191505092915050565b600081519050919050565b600082825260208201905092915050565b6000819050602082019050919050565b600061115783836110e6565b905092915050565b6000602082019050919050565b60006111778261111f565b611181818561112a565b9350836020820285016111938561113b565b8060005b858110156111cf57848403895281516111b0858261114b565b94506111bb8361115f565b925060208a01995050600181019050611197565b50829750879550505050505092915050565b6000610100830160008301516111fa6000860182611078565b50602083015161120d6020860182611091565b506040830151848203604086015261122582826110e6565b9150506060830151848203606086015261123f828261116c565b9150506080830151848203608086015261125982826110e6565b91505060a083015184820360a086015261127382826110e6565b91505060c083015184820360c086015261128d82826110e6565b91505060e083015184820360e08601526112a782826110e6565b9150508091505092915050565b60006112c083836111e1565b905092915050565b6000602082019050919050565b60006112e08261101a565b6112ea8185611025565b9350836020820285016112fc85611036565b8060005b85811015611338578484038952815161131985826112b4565b9450611324836112c8565b925060208a01995050600181019050611300565b50829750879550505050505092915050565b6000602082019050818103600083015261136481846112d5565b905092915050565b61137581611087565b811461138057600080fd5b50565b6000813590506113928161136c565b92915050565b6000602082840312156113ae576113ad610caf565b5b60006113bc84828501611383565b91505092915050565b6113ce81611066565b82525050565b6113dd81611087565b82525050565b600082825260208201905092915050565b60006113ff826110a0565b61140981856113e3565b93506114198185602086016110bc565b61142281610cc3565b840191505092915050565b600060e082019050611442600083018a6113c5565b61144f60208301896113d4565b818103604083015261146181886113f4565b9050818103606083015261147581876113f4565b9050818103608083015261148981866113f4565b905081810360a083015261149d81856113f4565b905081810360c08301526114b181846113f4565b905098975050505050505050565b7f4f6e6c79206f776e65722063616e207769746864726177210000000000000000600082015250565b60006114f56018836113e3565b9150611500826114bf565b602082019050919050565b60006020820190508181036000830152611524816114e8565b9050919050565b7f4e487b7100000000000000000000000000000000000000000000000000000000600052602260045260246000fd5b6000600282049050600182168061157257607f821691505b6020821081036115855761158461152b565b5b50919050565b60008190508160005260206000209050919050565b60006020601f8301049050919050565b600082821b905092915050565b6000600883026115ed7fffffffffffffffffffffffffffffffffffffffffffffffffffffffffffffffff826115b0565b6115f786836115b0565b95508019841693508086168417925050509392505050565b6000819050919050565b600061163461162f61162a84611087565b61160f565b611087565b9050919050565b6000819050919050565b61164e83611619565b61166261165a8261163b565b8484546115bd565b825550505050565b600090565b61167761166a565b611682818484611645565b505050565b5b818110156116a65761169b60008261166f565b600181019050611688565b5050565b601f8211156116eb576116bc8161158b565b6116c5846115a0565b810160208510156116d4578190505b6116e86116e0856115a0565b830182611687565b50505b505050565b600082821c905092915050565b600061170e600019846008026116f0565b1980831691505092915050565b600061172783836116fd565b9150826002028217905092915050565b611740826110a0565b67ffffffffffffffff81111561175957611758610cd4565b5b611763825461155a565b61176e8282856116aa565b600060209050601f8311600181146117a1576000841561178f578287015190505b611799858261171b565b865550611801565b601f1984166117af8661158b565b60005b828110156117d7578489015182556001820191506020850194506020810190506117b2565b868310156117f457848901516117f0601f8916826116fd565b8355505b6001600288020188555050505b505050505050565b600082825260208201905092915050565b60006118258261111f565b61182f8185611809565b9350836020820285016118418561113b565b8060005b8581101561187d578484038952815161185e858261114b565b94506118698361115f565b925060208a01995050600181019050611845565b50829750879550505050505092915050565b6000610100820190506118a5600083018b6113c5565b6118b2602083018a6113d4565b81810360408301526118c481896113f4565b905081810360608301526118d8818861181a565b905081810360808301526118ec81876113f4565b905081810360a083015261190081866113f4565b905081810360c083015261191481856113f4565b905081810360e083015261192881846113f4565b90509998505050505050505050565b6000604082019050818103600083015261195181856113f4565b905061196060208301846113c5565b939250505056fea26469706673582212201b5c7dbc9ea9fc71a97193f7492b09356ce1825b332bf674514fdbc3fb6613e364736f6c63430008110033",
  "linkReferences": {},
  "deployedLinkReferences": {}
}